:020000040000FA
:100000000C94B2000C94DA000C94DA000C94DA0030
:100010000C94DA000C94DA000C94DA000C94DA00F8
:100020000C94DA000C94DA000C94DA000C94DA00E8
:100030000C94DA000C94DA000C94DA000C94DA00D8
:100040000C9448020C94DA000C94B8020C949202BE
:100050000C94DA000C94DA000C94DA000C94DA00B8
:100060000C94DA000C94DA0000407A10F35A00A0E5
:10007000724E18090010A5D4E80000E87648170071
:1000800000E40B54020000CA9A3B000000E1F505B1
:10009000000080969800000040420F000000A086FB
:1000A00001000000102700000000E803000000002D
:1000B0006400000000000A000000000001000000D1
:1000C00000002C76D888DC674F0823DFC1DFAE59EB
:1000D000E1B1B796E5E3E453C63AE651997696E87E
:1000E000E6C28426EB898C9B62ED407C6FFCEFBC02
:1000F0009C9F40F2BAA56FA5F490055A2AF75C932D
:100100006B6CF9676DC11BFCE0E40D47FEF520E662
:10011000B500D0ED902E0300943577050080841E45
:10012000080000204E0A000000C80C333333330FA0
:10013000986E12831141EF8D2114893BE65516CF3D
:10014000FEE6DB18D1844B381BF77C1D901DA4BB49
:10015000E424203284725E228100C9F124ECA1E5FE
:100160003D27700411241FBECFEFD8E0DEBFCDBF06
:1001700021E0A8E2B1E001C01D92A23DB207E1F783
:1001800011E0A0E0B1E0EAEFF5E102C005900D92C8
:10019000A832B107D9F710E0C2EBD0E004C0219734
:1001A000FE010E940309C13BD107C9F70E94EA0280
:1001B0000C94FB0A0C9400003FB7F8948091CA019C
:1001C0009091CB01A091CC01B091CD0126B5A89B17
:1001D00005C02F3F19F00196A11DB11D3FBFBA2FD9
:1001E000A92F982F8827BC01CD01620F711D811D99
:1001F000911D42E0660F771F881F991F4A95D1F71E
:100200000895AF92BF92CF92DF92EF92FF920F9339
:100210001F93CF93DF936C017B018B01040F151F9C
:10022000EB015E01AE18BF08C017D10759F0699104
:10023000D601ED91FC910190F081E02DC601099568
:10024000892B79F7C501DF91CF911F910F91FF9015
:10025000EF90DF90CF90BF90AF900895FC01538D49
:10026000448D252F30E0842F90E0821B930B541790
:1002700010F0CF96089501970895FC01918D828D1D
:10028000981761F0A28DAE0FBF2FB11D5D968C91B6
:10029000928D9F5F9F73928F90E008958FEF9FEFF5
:1002A0000895FC01918D828D981731F0828DE80FB1
:1002B000F11D858D90E008958FEF9FEF0895FC016B
:1002C000918D228D892F90E0805C9F4F821B910938
:1002D0008F739927089588E291E00E945F0121E0E1
:1002E000892B09F420E0822F089580E090E0892B8B
:1002F00029F00E946B0181110C9400000895FC010B
:10030000A48DA80FB92FB11DA35ABF4F2C91848D76
:1003100090E001968F739927848FA689B7892C93D3
:10032000A089B1898C91837080648C93938D848D26
:10033000981306C00288F389E02D80818F7D808329
:100340000895EF92FF920F931F93CF93DF93EC01E9
:1003500081E0888F9B8D8C8D98131AC0E889F9896C
:10036000808185FF15C09FB7F894EE89FF8960836F
:10037000E889F98980818370806480839FBF81E0F0
:1003800090E0DF91CF911F910F91FF90EF90089532
:10039000F62E0B8D10E00F5F1F4F0F731127E02E0D
:1003A0008C8D8E110CC00FB607FCFACFE889F98945
:1003B000808185FFF5CFCE010E947F01F1CFEB8DCB
:1003C000EC0FFD2FF11DE35AFF4FF0829FB7F89419
:1003D0000B8FEA89FB8980818062CFCFCF93DF9337
:1003E000EC01888D8823B9F0AA89BB89E889F9894D
:1003F0008C9185FD03C0808186FD0DC00FB607FC82
:10040000F7CF8C9185FFF2CF808185FFEDCFCE01B4
:100410000E947F01E9CFDF91CF910895CF93DF93C1
:10042000EC0188819981009711F00E94A509198239
:1004300018821D821C821B821A82DF91CF9108953F
:100440000F931F93CF93DF93EC01888199810097DD
:1004500059F02A813B812617370730F081E0DF9180
:10046000CF911F910F9108958B016F5F7F4F0E9475
:100470002E0A009759F0998388831B830A832C8165
:100480003D81232B59F7FC011082E8CF80E0E7CFB4
:100490001F920F920FB60F9211242F933F938F93B9
:1004A0009F93AF93BF938091C6019091C701A09194
:1004B000C801B091C9013091C50123E0230F2D3748
:1004C00058F50196A11DB11D2093C5018093C60169
:1004D0009093C701A093C801B093C9018091CA014C
:1004E0009091CB01A091CC01B091CD010196A11DBD
:1004F000B11D8093CA019093CB01A093CC01B0931E
:10050000CD01BF91AF919F918F913F912F910F900E
:100510000FBE0F901F90189526E8230F0296A11D7D
:10052000B11DD2CF1F920F920FB60F9211242F93AD
:100530003F934F935F936F937F938F939F93AF936B
:10054000BF93EF93FF9388E291E00E947F01FF91B8
:10055000EF91BF91AF919F918F917F916F915F913B
:100560004F913F912F910F900FBE0F901F901895B4
:100570001F920F920FB60F9211242F938F939F9378
:10058000EF93FF93E0913801F09139018081E09180
:100590003E01F0913F0182FD1BC09081809141019D
:1005A0008F5F8F7320914201821741F0E0914101EA
:1005B000F0E0E85DFE4F958F80934101FF91EF9150
:1005C0009F918F912F910F900FBE0F901F901895B4
:1005D0008081F4CFCF93DF93CDB7DEB7A7970FB667
:1005E000F894DEBF0FBECDBF789484B5826084BD21
:1005F00084B5816084BD85B5826085BD85B5816027
:1006000085BD80916E00816080936E0010928100A4
:10061000809181008260809381008091810081605F
:100620008093810080918000816080938000809120
:10063000B10084608093B1008091B00081608093AC
:10064000B00080917A00846080937A0080917A0073
:10065000826080937A0080917A00816080937A0032
:1006600080917A00806880937A001092C100E091B6
:100670003801F091390182E08083E0913401F091FA
:1006800035011082E0913601F09137018FEC8083C3
:1006900010924001E0913C01F0913D0186E08083A1
:1006A000E0913A01F0913B01808180618083E0918B
:1006B0003A01F0913B01808188608083E0913A01AA
:1006C000F0913B01808180688083E0913A01F09154
:1006D0003B0180818F7D808390E4D92E20E0E22E43
:1006E00020E0F22ED0927C0080917A00806480938A
:1006F0007A0080917A0086FDFCCF6091780070913D
:1007000079001BA21AA21DA21CA21FA21EA2072EC4
:10071000000C880B990B0E94F40620E030E040EAC0
:1007200050E40E942F0720E030EC4FE754E40E9491
:10073000910820E030E0A9010E9425088E010F5F9A
:100740001F4F22E044E00E949D045C01009779F075
:10075000FC0101900020E9F731978F01081B190B6C
:10076000B801CE0182960E942002811194C0CE0170
:1007700082960E940E021A8219821C821B821E829D
:100780001D8268E070E0CE0101960E942002811176
:100790008AC0CE0101960E940E02AAA0BBA0A1149D
:1007A000B10409F48BC00EA11FA101151105B9F008
:1007B0008D819E81080F191FB801CE0101960E94FC
:1007C0002002882309F47AC029813A818D819E8193
:1007D000B501820F931F0E94F40A1E830D830D81C1
:1007E0001E810D5F1F4FB801CE0101960E942002AD
:1007F000811169C0CE0101960E940E024D815E8179
:1008000069817A8188E291E00E94010142E050E032
:1008100065E271E088E291E00E94010189819A819C
:10082000009711F00E94A5098AA19BA1009711F0E1
:100830000E94A5090E94DC002B013C018CE2882E5D
:1008400099249394A12CB12C0E94DC0064197509A1
:1008500086099709683E734081059105A8F321E058
:10086000821A9108A108B10888EE480E83E0581E4C
:10087000611C711C81149104A104B10429F7E114D5
:10088000F10409F42FCF0E946B01882309F42ACFC9
:100890000E94000027CF1FA30EA3B5018AA19BA130
:1008A0000E94F40A68CF88E090E09E838D8368E11F
:1008B00071E089819A810E94F40A6FCFCE0101967E
:1008C0000E940E028CCF29813A818D819E8161E246
:1008D00071E0820F931F0E94F40A1E830D838ECF56
:1008E000E8E2F1E01382128288EE93E0A0E0B0E04B
:1008F00084839583A683B7838AE091E09183808384
:1009000085EC90E09587848784EC90E097878687D4
:1009100080EC90E0918B808B81EC90E0938B828BCC
:1009200082EC90E0958B848B86EC90E0978B868BA5
:10093000118E128E138E148E0895EF920F931F93C3
:10094000CF93DF93E80134E047FD34E1042E000C3F
:10095000550B57FF03C0519541955109E32E022FC6
:10096000242FAE010E94BB04CE01DF91CF911F91D5
:100970000F91EF900895A9E0B0E0E1ECF4E00C9461
:10098000F3076A01F22EB02E102FFBE3AF2EA01654
:1009900008F41BE31F5F012F27E0AE014F5F5F4F9D
:1009A0000E941A06BC018981982F9970913009F430
:1009B0003FC09BE2E1FC04C09E2D9170E0FC3AC078
:1009C0005E2D5071E82FE87083FF46C084E09111DE
:1009D00001C083E0EF2DE81B8F1508F0E0E0D601A1
:1009E0008E2F20E2552351F1992329F0D6019C93B3
:1009F000C60101966C0196012D5F3F4FE2FE24C0B7
:100A00008EE4D6018C9391E411969C9311971296E3
:100A10008C93D9018E2F90E281111BC0E20FF32F2E
:100A2000F11D10828EEF9FEF2996ECE00C940F08D9
:100A30009DE2C6CF90E2C4CF2D9381508111FCCFAF
:100A4000CE0ED11CE0E0D0CF8EE6D6018C9391E69D
:100A5000DBCF9D938150E0CF482F447082FF3DC093
:100A600084E0911101C083E08F1510F4EF2DE81B95
:100A7000D6018E2F20E2552309F1992329F0D601C2
:100A80009C93C60101966C0196012D5F3F4FE2FEDB
:100A90001BC089E4D6018C938EE411968C93119738
:100AA00086E412968C93D9018E2F90E2882309F464
:100AB000B5CF9D938150FACF2D9381508111FCCFFA
:100AC000CE0ED11CE0E0D9CF89E6D6018C938EE61C
:100AD00011968C93119786E6E4CF9B0177FF02C0B5
:100AE00030E020E0A1E0B0E0911102C0B0E0A0E071
:100AF000F9013196AE0FBF1F8B2C912CBB2009F44E
:100B000061C05401EFEFAE1ABE0AAA0DBB1DFA1662
:100B10001B0619F014F04F2D4A1B511188C0E3FC3D
:100B200059C07601A42FB0E2A1114FC0C40ED11C50
:100B3000992309F45BC040E0D6011196F601908339
:100B40006D01552309F448C0012F060F9A81582FD3
:100B5000507184FF03C0913309F4015010160CF05A
:100B600047C0093008F008E0EEE2FE2E5B01A01A53
:100B7000B10885019194819491082F3F320729F49F
:100B8000D601FC92F60131966F016217730794F15A
:100B9000021713077CF5DB01A21BB30BAA24A39455
:100BA000B12CAC0EBD1EAA0DBB1D11968C9121500F
:100BB0003109D601119628153905F4F0F601808324
:100BC0006D01DBCFB12CA12CA0CFF701B1937F0138
:100BD000A150AACF9111B0CFD601942F50E302C0FB
:100BE0005D9391509111FCCFC40ED11C40E0ACCF6D
:100BF00001E0BACF80E3DBCF6217730731F496339D
:100C000088F4953311F4552369F0F6018083FD01D2
:100C1000842F90E2811108C0A40FB11D1C9290E0B6
:100C200080E002CF81E3F1CF91938150F3CF911116
:100C300083CF8ACF283008F027E03327DA01990FD5
:100C4000311D87FD916000966105710539F43260B0
:100C50002E5F3D9330E32A95E1F708959F3F30F0F2
:100C600080387105610509F03C5F3C5F3D93913030
:100C700008F08068911DDF93CF931F930F93FF922D
:100C8000EF92192F987F9695E92F96959695E90FF3
:100C9000FF27EE53FF4F99273327EE24FF24A701A8
:100CA000E70105900894079428F4360FE71EF81E14
:100CB000491F511D660F771F881F991F0694A1F7C2
:100CC0000590079428F4E70EF81E491F561FC11D12
:100CD000770F881F991F661F0694A1F70590079448
:100CE00028F4F80E491F561FC71FD11D880F991FE2
:100CF000661F771F0694A1F70590079420F4490F0B
:100D0000561FC71FD81F990F661F771F881F06948D
:100D1000A9F784911095177041F0D695C79557950E
:100D20004795F794E7941A95C1F7E8E6F0E06894E0
:100D30001590159135916591959105907FE2739588
:100D4000E118F10A430B560BC90BD009C0F7E10CAF
:100D5000F11E431F561FC91FD01D7EF4703311F4BE
:100D60008A95E6CFE894015030F0080F0AF4002786
:100D7000021708F4202F2395022F7A3328F079E305
:100D80007D932A95E9F710C07D932A9589F60694FC
:100D900097956795379517951794E118F10A430BC6
:100DA000560BC90BD00998F023957E9173957A3331
:100DB00008F070E37C932013B8F77E9170617D9307
:100DC00030F0839571E37D9370E32A95E1F7112468
:100DD000EF90FF900F911F91CF91DF91992787FDA1
:100DE00090950895E89409C097FB3EF490958095FE
:100DF000709561957F4F8F4F9F4F9923A9F0F92FE1
:100E000096E9BB279395F695879577956795B7955E
:100E1000F111F8CFFAF4BB0F11F460FF1BC06F5F44
:100E20007F4F8F4F9F4F16C0882311F096E911C056
:100E3000772321F09EE8872F762F05C0662371F077
:100E400096E8862F70E060E02AF09A95660F771F8B
:100E5000881FDAF7880F9695879597F908950E946D
:100E600042070C94B3070E94A50738F00E94AC0714
:100E700020F0952311F00C949C070C94A2071124E8
:100E80000C94E7070E94C40770F3959FC1F3950F78
:100E900050E0551F629FF001729FBB27F00DB11DFE
:100EA000639FAA27F00DB11DAA1F649F6627B00D8E
:100EB000A11D661F829F2227B00DA11D621F739F77
:100EC000B00DA11D621F839FA00D611D221F749F85
:100ED0003327A00D611D231F849F600D211D822FCC
:100EE000762F6A2F11249F5750409AF0F1F08823F3
:100EF0004AF0EE0FFF1FBB1F661F771F881F915020
:100F00005040A9F79E3F510580F00C949C070C942B
:100F1000E7075F3FE4F3983ED4F3869577956795AE
:100F2000B795F795E7959F5FC1F7FE2B880F911D49
:100F30009695879597F9089597F99F6780E870E0EF
:100F400060E008959FEF80EC089500240A9416163F
:100F5000170618060906089500240A9412161306A7
:100F6000140605060895092E0394000C11F4882335
:100F700052F0BB0F40F4BF2B11F460FF04C06F5F51
:100F80007F4F8F4F9F4F089557FD9058440F551F27
:100F900059F05F3F71F04795880F97FB991F61F0FB
:100FA0009F3F79F087950895121613061406551F72
:100FB000F2CF4695F1DF08C0161617061806991FDE
:100FC000F1CF86957105610508940895E894BB27D3
:100FD00066277727CB0197F908952F923F924F927A
:100FE0005F926F927F928F929F92AF92BF92CF92B9
:100FF000DF92EF92FF920F931F93CF93DF93CDB7C2
:10100000DEB7CA1BDB0B0FB6F894DEBF0FBECDBF39
:1010100009942A88398848885F846E847D848C840A
:101020009B84AA84B984C884DF80EE80FD800C8113
:101030001B81AA81B981CE0FD11D0FB6F894DEBFF6
:101040000FBECDBFED0108955058BB27AA270E94BF
:101050003C080C94B3070E94A50738F00E94AC0727
:1010600020F039F49F3F19F426F40C94A2070EF4F3
:10107000E095E7FB0C949C07E92F0E94C40758F306
:10108000BA17620773078407950720F079F4A6F56D
:101090000C94E6070EF4E0950B2EBA2FA02D0B0151
:1010A000B90190010C01CA01A0011124FF27591BAD
:1010B00099F0593F50F4503E68F11A16F040A22FB3
:1010C000232F342F4427585FF3CF46953795279524
:1010D000A795F0405395C9F77EF41F16BA0B620B23
:1010E000730B840BBAF09150A1F0FF0FBB1F661F6A
:1010F000771F881FC2F70EC0BA0F621F731F841FAD
:1011000048F4879577956795B795F7959E3F08F0D2
:10111000B0CF9395880F08F09927EE0F9795879594
:1011200008950E94A5080C94B3070E94AC0758F0DC
:101130000E94A50740F029F45F3F29F00C949C071A
:1011400051110C94E7070C94A2070E94C40768F39E
:101150009923B1F3552391F3951B550BBB27AA2770
:1011600062177307840738F09F5F5F4F220F331FAA
:10117000441FAA1FA9F335D00E2E3AF0E0E832D072
:1011800091505040E695001CCAF72BD0FE2F29D075
:10119000660F771F881FBB1F261737074807AB0747
:1011A000B0E809F0BB0B802DBF01FF2793585F4FBC
:1011B0003AF09E3F510578F00C949C070C94E70799
:1011C0005F3FE4F3983ED4F3869577956795B7959E
:1011D000F7959F5FC9F7880F911D9695879597F9A9
:1011E0000895E1E0660F771F881FBB1F6217730722
:1011F0008407BA0720F0621B730B840BBA0BEE1F37
:1012000088F7E0950895EE0FFF1F0590F491E02D0B
:1012100009940F931F93CF93DF938230910510F4BD
:1012200082E090E0E091D001F091D10130E020E047
:10123000B0E0A0E0309799F42115310509F44AC0D7
:10124000281B390B24303105D8F58A819B81611523
:10125000710589F1FB0193838283FE0111C04081F6
:1012600051810281138148175907E0F04817590747
:1012700099F4109761F012960C93129713961C93A1
:101280003296CF01DF91CF911F910F910895009376
:10129000D0011093D101F4CF2115310551F042173F
:1012A000530738F0A901DB019A01BD01DF01F80104
:1012B000C1CFEF01F9CF9093D1018093D001CDCF71
:1012C000FE01E20FF31F819391932250310939837C
:1012D0002883D7CF2091CE013091CF01232B41F429
:1012E00020910201309103013093CF012093CE0170
:1012F00020910001309101012115310541F42DB7F4
:101300003EB74091040150910501241B350BE0913B
:10131000CE01F091CF01E217F307A0F42E1B3F0B93
:101320002817390778F0AC014E5F5F4F2417350757
:1013300048F04E0F5F1F5093CF014093CE01819331
:1013400091939FCFF0E0E0E09CCFCF93DF930097A5
:10135000E9F0FC01329713821282A091D001B09182
:10136000D101ED0130E020E01097A1F4208131811E
:10137000820F931F2091CE013091CF01281739079A
:1013800009F061C0F093CF01E093CE01DF91CF91DE
:101390000895EA01CE17DF07E8F54A815B819E01D7
:1013A00041155105B1F7E901FB83EA834991599150
:1013B000C40FD51FEC17FD0761F48081918102965F
:1013C000840F951FE90199838883828193819B8390
:1013D0008A83F0E0E0E012968D919C91139700973C
:1013E000B9F52D913C911197CD010296820F931F73
:1013F0002091CE013091CF012817390739F6309767
:1014000051F51092D1011092D001B093CF01A09369
:10141000CE01BCCFD383C28340815181840F951FFD
:10142000C817D90761F44E5F5F4F88819981480FD3
:10143000591F518340838A819B8193838283211525
:10144000310509F0B0CFF093D101E093D0019ECFE8
:10145000FD01DC01C0CF13821282D7CFB0E0A0E043
:10146000E4E3FAE00C94EF078C01009751F4CB0110
:101470000E9409098C01C801CDB7DEB7E0E10C94E8
:101480000B08FC01E60FF71F9C0122503109E217FF
:10149000F30708F49DC0D901CD91DC911197C617CF
:1014A000D70798F0C530D10530F3CE0104978617E1
:1014B000970708F3C61BD70B2297C193D1936D935F
:1014C0007C93CF010E94A509D6CF5B01AC1ABD0A5F
:1014D0004C018C0E9D1EA091D001B091D101512CD8
:1014E000412CF12CE12C109731F58091CE01909197
:1014F000CF018815990509F05CC04616570608F01B
:1015000058C08091000190910101009741F48DB77E
:101510009EB74091040150910501841B950BE8177B
:10152000F90708F055C0F093CF01E093CE01F9011F
:1015300071836083A0CF8D919C91119712966C90CE
:10154000129713967C901397A815B90559F56C015D
:1015500042E0C40ED11CCA14DB0420F1AC014A19CC
:101560005B09DA011296159780F0628273825183CB
:101570004083D9016D937C93E114F10471F0D7019C
:101580001396FC93EE93129776CF22968C0F9D1FA5
:10159000F90191838083F301EFCFF093D101E093C0
:1015A000D00169CF4816590608F42C017D01D301FA
:1015B0009ACFCB010E9409097C01009749F0AE0146
:1015C000B8010E94EB0AC8010E94A509870153CF08
:1015D00010E000E050CFFB01DC0102C001900D9251
:1015E00041505040D8F70895FB01DC0101900D9265
:1015F0000020E1F70895F894FFCF0000D2018000A9
:1016000000000000A10101012E01EE015F013D017A
:10161000510143757272656E743A00616D70000D10
:021620000A00BE
:107E0000112484B714BE81FFF0D085E080938100F7
:107E100082E08093C00088E18093C10086E0809377
:107E2000C20080E18093C4008EE0C9D0259A86E02C
:107E300020E33CEF91E0309385002093840096BBD3
:107E4000B09BFECF1D9AA8958150A9F7CC24DD24C4
:107E500088248394B5E0AB2EA1E19A2EF3E0BF2EE7
:107E6000A2D0813461F49FD0082FAFD0023811F036
:107E7000013811F484E001C083E08DD089C08234E0
:107E800011F484E103C0853419F485E0A6D080C0E4
:107E9000853579F488D0E82EFF2485D0082F10E0AE
:107EA000102F00270E291F29000F111F8ED06801E7
:107EB0006FC0863521F484E090D080E0DECF843638
:107EC00009F040C070D06FD0082F6DD080E0C81688
:107ED00080E7D80618F4F601B7BEE895C0E0D1E017
:107EE00062D089930C17E1F7F0E0CF16F0E7DF06D8
:107EF00018F0F601B7BEE89568D007B600FCFDCFD4
:107F0000A601A0E0B1E02C9130E011968C91119780
:107F100090E0982F8827822B932B1296FA010C0160
:107F200087BEE89511244E5F5F4FF1E0A038BF0790
:107F300051F7F601A7BEE89507B600FCFDCF97BE46
:107F4000E89526C08437B1F42ED02DD0F82E2BD052
:107F50003CD0F601EF2C8F010F5F1F4F84911BD097
:107F6000EA94F801C1F70894C11CD11CFA94CF0C13
:107F7000D11C0EC0853739F428D08EE10CD085E9AC
:107F80000AD08FE07ACF813511F488E018D01DD067
:107F900080E101D065CF982F8091C00085FFFCCF94
:107FA0009093C60008958091C00087FFFCCF809118
:107FB000C00084FD01C0A8958091C6000895E0E648
:107FC000F0E098E1908380830895EDDF803219F02E
:107FD00088E0F5DFFFCF84E1DECF1F93182FE3DFCA
:107FE0001150E9F7F2DF1F91089580E0E8DFEE27F6
:047FF000FF270994CA
:027FFE00040479
:00000001FF
